S00C0000756172742E737265635C
S11300000C9434000C9451000C9451000C94510045
S11300100C9451000C9451000C9451000C94510018
S11300200C9451000C9451000C9451000C94510008
S11300300C9451000C9432010C9451000C94510016
S11300400C9451000C9451000C9406020C9434024C
S11300500C9451000C9447010C9451000C945100E1
S11300600C9451000C94510011241FBECFEFD8E022
S1130070DEBFCDBF11E0A0E0B1E0E4EAF5E002C0EC
S113008005900D92A434B107D9F721E0A4E4B1E0BE
S113009001C01D92A938B207E1F70E94F6000C9442
S11300A0D0020C940000299A85E08A95F1F70000AB
S11300B029980895CF93C82F662311F0289A01C078
S11300C02898549A559A569A579A5F985E985D98CC
S11300D05C98CC230CF45F9AC6FD5E9AC5FD5D9ACC
S11300E0C4FD5C9A0E9453005F985E985D985C988A
S11300F0C3FD5F9AC2FD5E9AC1FD5D9AC0FD5C9A24
S11301000E9453005C9A5D9A5E9A5F9A87EB9BE02B
S11301100197F1F700C00000CF91089560E00E94BC
S11301205A000895611104C080580E948E000895F9
S113013080540E948E00089581E00E948E000895EC
S113014061E00E945A000895CF93DF93EC01219659
S1130150FC018081882329F00E94A00089918111EB
S1130160FBCFDF91CF910895CF93C82F209A559A52
S1130170219A549A559A569A579A8FEF99EF019764
S1130180F1F700C000005D9A5C9A0E9453008FE171
S11301909EE40197F1F700C000000E9453008FEF26
S11301A090E00197F1F700C000000E9453008FEF28
S11301B090E00197F1F700C000005C980E945300A2
S11301C08FEF90E00197F1F700C0000088E20E94F1
S11301D08E0088E00E948E000E949C0086E00E94AF
S11301E08E008C2F0E948E00CF9108958CE00E9487
S11301F0B40060E081E00E94920080E091E00E94FF
S1130200A40061E083E00E94920087E091E00E94F4
S1130210A400ECE7F0E080818064808380818F77A4
S113022080838081807F8083EAE7F0E0808180683A
S11302308083808188608083808187608083E1E817
S1130240F0E080818B7F8083808183608083EFE610
S1130250F0E080818160808387E690E00E945E0206
S11302607894FFCF1F920F920FB60F9211248F93A1
S1130270EF93FF93EAE7F0E0808180648083FF914D
S1130280EF918F910F900FBE0F901F9018951F92B2
S11302900F920FB60F9211240F931F932F933F9336
S11302A04F935F936F937F938F939F93AF93BF937A
S11302B0EF93FF93CF93DF93CDB7DEB72597DEBFE0
S11302C0CDBF00917800109179004AE0BE016F5FC4
S11302D07F4FC8010E949B0260E088E00E94920068
S11302E08CE091E00E94A40060E088E00E9492000B
S11302F0CE0101960E94A40040E1BE016F5F7F4FD2
S1130300C8010E949B0260E08DE00E9492008EE092
S113031091E00E94A40060E08DE00E949200CE0172
S113032001960E94A40061E088E00E9492008CE0A3
S113033091E00E94A40082E191E00E948C02CE012F
S113034001960E948C0289E291E00E948C02083F8F
S113035083E0180748F061E088E00E9492008CE294
S113036091E00E94A40038C0C801845691098536E2
S1130370910548F461E088E00E94920081E391E0F5
S11303800E94A40029C0C8018C519240C39748F42C
S113039061E088E00E94920086E391E00E94A4005C
S11303A01BC0C8018E5E9240899748F461E088E0E2
S11303B00E94920089E391E00E94A4000DC00A58B3
S11303C012400333110540F461E088E00E9492007A
S11303D08FE391E00E94A4000F900F900F900F9074
S11303E00F90DF91CF91FF91EF91BF91AF919F91CA
S11303F08F917F916F915F914F913F912F911F91B9
S11304000F910F900FBE0F901F9018951F920F928F
S11304100FB60F9211242F938F939F93EF93FF9313
S11304208091C0002091C6008C71E0914601EF5F7D
S1130430EF7190914501E91739F0E0934601F0E03E
S1130440E75BFE4F208301C082E090914401892B39
S113045080934401FF91EF919F918F912F910F9081
S11304600FBE0F901F9018951F920F920FB60F9208
S113047011248F939F93EF93FF9390914801809160
S11304804701981769F0E0914701EF5FEF71E0933E
S11304904701F0E0E759FE4F80818093C60005C014
S11304A0E1ECF0E080818F7D8083FF91EF919F915B
S11304B08F910F900FBE0F901F90189510924801C6
S11304C010924701109246011092450199231CF4A1
S11304D022E02093C00090789093C5008093C400DC
S11304E088E98093C10086E08093C200089520913A
S11304F048012F5F2F71909147012917E1F3E22FF3
S1130500F0E0E759FE4F808320934801E1ECF0E0EE
S11305108081806280830895CF93DF93EC0188818A
S1130520882331F021960E94770289918111FBCFB3
S1130530DF91CF910895BB274A3031F4992322F4F7
S1130540BDE2909581959F4F0C94A702BB27FB01B8
S11305505527AA27880F991FAA1FA41710F0A41BB8
S113056083955051B9F7A05DAA3308F0A95DA19312
S1130570009779F7B111B1931192CB010C94C00299
S1130580DC01FC01672F71917723E1F7329704C0F6
S11305907C916D9370836291AE17BF07C8F3089581
S10705A0F894FFCFF9
S11305A476616C75653A006B65793A0020202020E9
S11305B420004144432076616C756520696E206493
S11305C46563696D616C3A20000A0D004E6F6E65B7
S11305D4004C656674005570005269676874004481
S10705E46F776E00BB
S9030000FC
