S01300006B6E6967687452696465722E7372656396
S11300000C9434000C943E000C943E000C943E007E
S11300100C943E000C943E000C943E000C943E0064
S11300200C943E000C943E000C943E000C943E0054
S11300300C943E000C943E000C943E000C943E0044
S11300400C943E000C943E000C943E000C943E0034
S11300500C943E000C943E000C943E000C943E0024
S11300600C943E000C943E0011241FBECFEFD8E048
S1130070DEBFCDBF0E9440000C940E010C94000022
S1130080209A2898219A2998229A2A98239A2B9878
S1130090249A2C985098589A60E070E040E050E020
S11300A0E0E0F0E001E012E0D4E0C8E06894FF246E
S11300B0F4F8A1E0B0E018998EC04F5F5F4F453F60
S11300C021E052070CF492C0309709F092C08FEFF0
S11300D094E32CE0815090402040E1F700C0000000
S11300E085B1802785B98FEF94E32CE0815090404F
S11300F02040E1F700C00000289885B1812785B928
S11301008FEF94E32CE0815090402040E1F700C051
S11301100000299885B18D2785B98FEF94E32CE0F1
S1130120815090402040E1F700C000002A9885B13A
S11301308C2785B98FEF94E32CE0815090402040C8
S1130140E1F700C000002B9885B18F2585B98FEFAA
S113015094E32CE0815090402040E1F700C000007F
S11301602C9885B18C2785B98FEF94E32CE08150CE
S113017090402040E1F700C000002B9885B18D2706
S113018085B98FEF94E32CE0815090402040E1F753
S113019000C000002A9885B1812785B98FEF94E3C8
S11301A02CE0815090402040E1F700C000002998E5
S11301B085B1802785B98FEF94E32CE0815090407E
S11301C02040E1F700C00000289860E070E040E0C3
S11301D050E0FD0115C06F5F7F4F653F81E07807F8
S11301E06CF060E070E040E050E00AC060E070E075
S11301F007C060E070E040E050E002C040E050E042
S11302009D010E2E02C0220F331F0A94E2F789B11A
S113021090E082239323892BD1F74DCFF894FFCF1D
S9030000FC
