S00D00006D6F7273652E73726563F1
S11300000C9434000C9449000C9449000C9449005D
S11300100C9449000C9449000C9449000C94490038
S11300200C9449000C9449000C9449000C94490028
S11300300C9449000C9449000C9449000C94490018
S11300400C9449000C9449000C9449000C94490008
S11300500C9449000C9449000C9449000C944900F8
S11300600C9449000C94490011241FBECFEFD8E032
S1130070DEBFCDBF11E0A0E0B1E0E8E2F1E002C0F4
S113008005900D92A231B107D9F70E944B000C9450
S113009092000C940000CF93DF93CDB7DEB7629744
S11300A00FB6F894DEBF0FBECDBF82E1E0E0F1E011
S11300B0DE01119601900D928A95E1F7259A2D980B
S11300C09E012B5E3F4F40E2FE0131965FEF85EAD1
S11300D09EE0515080409040E1F700C000008191C3
S11300E09191019771F485B1842785B95FEF8BE70E
S11300F092E9515080409040E1F700C000002D98F3
S11301000DC085B1842785B95FEF89E698E1515028
S113011080409040E1F700C000002D98E217F307FB
S10B0120A9F6D2CFF894FFCF39
S113012801000000000000000000000001000100C0
S10501380100C0
S9030000FC
