S00B00006C63642E73726563E6
S11300000C9434000C9451000C9451000C94510045
S11300100C9451000C9451000C9451000C94510018
S11300200C9451000C9451000C9451000C94510008
S11300300C9451000C9451000C9451000C945100F8
S11300400C9426010C9451000C9451000C94510012
S11300500C9451000C9451000C9451000C945100D8
S11300600C9451000C94510011241FBECFEFD8E022
S1130070DEBFCDBF11E0A0E0B1E0E2E1F7E002C0F5
S113008005900D92A433B107D9F721E0A4E3B1E0C0
S113009001C01D92AB33B207E1F70E94FA000C9441
S11300A087030C940000299A85E08A95F1F70000F3
S11300B029980895CF93C82F662311F0289A01C078
S11300C02898549A559A569A579A5F985E985D98CC
S11300D05C98CC230CF45F9AC6FD5E9AC5FD5D9ACC
S11300E0C4FD5C9A0E9453005F985E985D985C988A
S11300F0C3FD5F9AC2FD5E9AC1FD5D9AC0FD5C9A24
S11301000E9453005C9A5D9A5E9A5F9A87EB9BE02B
S11301100197F1F700C00000CF91089560E00E94BC
S11301205A00089561E00E945A000895611104C0C4
S113013080580E948E00089580540E948E00089575
S113014081E00E948E00089561E00E945A000895A3
S1130150CF93DF93EC012196FC018081882329F061
S11301600E94A40089918111FBCFDF91CF91089562
S1130170CF93C82F209A559A219A549A559A569AF1
S1130180579A8FEF99EF0197F1F700C000005D9A3D
S11301905C9A0E9453008FE19EE40197F1F700C03E
S11301A000000E9453008FEF90E00197F1F700C028
S11301B000000E9453008FEF90E00197F1F700C018
S11301C000005C980E9453008FEF90E00197F1F7D4
S11301D000C0000088E20E948E0088E00E948E0029
S11301E00E94A00086E00E948E008C2F0E948E0048
S11301F0CF9108958CE00E94B80080E40E948E00A4
S1130200C0E0D1E008E211E089910E949200C01799
S1130210D107D1F780E80E948E0060E081E00E945F
S1130220960088E291E00E94A80061E08BE00E94C1
S1130230960085B58B7F85BD85B5836085BDEEE66B
S1130240F0E08081816080837894FFCF1F920F92C9
S11302500FB60F9211242F933F934F935F936F9395
S11302607F938F939F93AF93BF93EF93FF93CF931A
S1130270DF9300D0CDB7DEB71A82198280913A019C
S11302808F5F80933A01909139019F5F9093390178
S1130290843608F4C1C08091370190E0BC01660F38
S11302A0771F880F991F880F991F880F991F680F50
S11302B0791F80913801680F711D072E000C880B7F
S11302C0990B0E94590210923A01209136012F5F36
S11302D0209336019B01AC010E94BD020E942102C1
S11302E0DC01CB014AE0BE016F5F7F4F0E945203E5
S11302F060E08BE00E949600CE0101960E94A80067
S1130300809136018A3098F110923601809138013B
S11303108F5F8A3018F48093380129C01092380115
S1130320809137018F5F863018F4809337011FC0A6
S113033010923701809135018F5F8093350160E021
S11303408CE00E94960080E391E00E94A8008091D6
S113035035018A3060F010923501809134018F5F4D
S1130360863018F48093340102C0109234018091D5
S113037036014AE0BE016F5F7F4F90E00E94520356
S113038060E087E00E949600CE0101960E94A800DA
S1130390809138014AE0BE016F5F7F4F90E00E9478
S11303A0520360E085E00E949600CE0101960E940F
S11303B0A800809137014AE0BE016F5F7F4F90E053
S11303C00E94520360E084E00E949600CE010196F0
S11303D00E94A800809135014AE0BE016F5F7F4F03
S11303E090E00E94520360E082E00E949600CE01F9
S11303F001960E94A800809134014AE0BE016F5F1B
S11304007F4F90E00E94520360E081E00E949600DA
S1130410CE0101960E94A8000F900F90DF91CF911A
S1130420FF91EF91BF91AF919F918F917F916F91C8
S11304305F914F913F912F910F900FBE0F901F909E
S113044018950E9428026894B1110C94B70208957B
S11304500E949C0288F09F5798F0B92F9927B751B2
S1130460B0F0E1F0660F771F881F991F1AF0BA9554
S1130470C9F714C0B13091F00E94B602B1E00895FA
S11304800C94B602672F782F8827B85F39F0B93FEC
S1130490CCF3869577956795B395D9F73EF4909507
S11304A08095709561957F4F8F4F9F4F0895E89485
S11304B009C097FB3EF490958095709561957F4FA8
S11304C08F4F9F4F9923A9F0F92F96E9BB27939556
S11304D0F695879577956795B795F111F8CFFAF466
S11304E0BB0F11F460FF1BC06F5F7F4F8F4F9F4F97
S11304F016C0882311F096E911C0772321F09EE8F5
S1130500872F762F05C0662371F096E8862F70E05A
S113051060E02AF09A95660F771F881FDAF7880F34
S11305209695879597F9089557FD9058440F551F50
S113053059F05F3F71F04795880F97FB991F61F061
S11305409F3F79F087950895121613061406551FD8
S1130550F2CF4695F1DF08C0161617061806991F44
S1130560F1CF86957105610508940895E894BB2739
S113057066277727CB0197F908950E94D0020C943F
S113058041030E94330338F00E943A0320F095237C
S113059011F00C942A030C94300311240C94B70228
S11305A00E94940270F3959FC1F3950F50E0551F7C
S11305B0629FF001729FBB27F00DB11D639FAA27B4
S11305C0F00DB11DAA1F649F6627B00DA11D661F03
S11305D0829F2227B00DA11D621F739FB00DA11D24
S11305E0621F839FA00D611D221F749F3327A00DDE
S11305F0611D231F849F600D211D822F762F6A2F7A
S113060011249F5750409AF0F1F088234AF0EE0FDE
S1130610FF1FBB1F661F771F881F91505040A9F70B
S11306209E3F510580F00C942A030C94B7025F3F5F
S1130630E4F3983ED4F3869577956795B795F79547
S1130640E7959F5FC1F7FE2B880F911D96958795BF
S113065097F9089597F99F6780E870E060E008953E
S11306609FEF80EC089500240A94161617061806C6
S11306700906089500240A941216130614060506A2
S11306800895092E0394000C11F4882352F0BB0F33
S113069040F4BF2B11F460FF04C06F5F7F4F8F4F96
S11306A09F4F0895BB274A3031F4992322F4BDE2C9
S11306B0909581959F4F0C945E03BB27FB015527B2
S11306C0AA27880F991FAA1FA41710F0A41B8395AB
S11306D05051B9F7A05DAA3308F0A95DA193009722
S11306E079F7B111B1931192CB010C947703DC012A
S11306F0FC01672F71917723E1F7329704C07C9155
S11307006D9370836291AE17BF07C8F30895F89490
S1050710FFCF15
S11307121010101010101010181818181818181893
S11307221C1C1C1C1C1C1C1C1E1E1E1E1E1E1E1EF3
S11307321F1F1F1F1F1F1F1F30303A30302E300063
S1070742202020004F
S9030000FC
