S01000007365676D656E74732E73726563AE
S11300000C9434000C9451000C9451000C94510045
S11300100C9451000C9451000C9451000C94510018
S11300200C9451000C9451000C9451000C94510008
S11300300C9451000C94E4000C9451000C94510065
S11300400C9494000C9451000C9451000C945100A5
S11300500C9451000C9451000C9451000C945100D8
S11300600C9451000C94510011241FBECFEFD8E022
S1130070DEBFCDBF11E0A0E0B1E0EEE3F3E002C0EB
S113008005900D92AE30B107D9F721E0AEE0B1E0B2
S113009001C01D92A331B207E1F70E9478000C94CD
S11300A09D010C940000FC01408121E030E002C07D
S11300B0220F331F6A95E2F7242B20830895FC0155
S11300C0908121E030E002C0220F331F6A95E2F7ED
S11300D02095292320830895FC01408121E030E00C
S11300E002C0220F331F6A95E2F7242B2083089560
S11300F00E94180185B58B7F85BD85B5836085BD5C
S1130100EEE6F0E0808181608083E1E8F0E08081C8
S11301108C7F8083808184608083EFE6F0E080813F
S1130120816080837894FFCF1F920F920FB60F9255
S113013011242F933F934F935F936F937F938F93E8
S11301409F93AF93BF93EF93FF9380910E0181111F
S11301500AC040E060E0809112010E94280181E021
S113016080930E0120C0813051F440E061E0809121
S11301700F010E94280182E080930E0114C0823096
S113018051F441E062E0809111010E94280183E072
S113019080930E0108C040E063E0809110010E944A
S11301A0280110920E01FF91EF91BF91AF919F91A1
S11301B08F917F916F915F914F913F912F910F900C
S11301C00FBE0F901F9018951F920F920FB60F92AB
S11301D011248F93809112018F5F8A3018F48093D9
S11301E0120120C01092120180910F018F5F86309E
S11301F018F480930F0116C010920F018091110121
S11302008F5F8A3018F4809311010CC01092110191
S1130210809110018F5F863018F48093100102C022
S1130220109210018F910F900FBE0F901F90189590
S113023064E08AE290E00E94530067E08AE290E082
S11302400E94530060E084E290E00E94530008950D
S11302501F93CF93DF93E82FF0E0EC5FFE4FC08154
S1130260E62FF0E0E050FF4F10814111CE7F64E0B3
S11302708BE290E00E945F0067E08BE290E00E94D6
S11302805F0060E08BE290E00E945F0085E08A9569
S1130290F1F70000D8E0C0FD06C060E085E290E020
S11302A00E945F0005C060E085E290E00E946C005F
S11302B085E08A95F1F7000067E08BE290E00E9408
S11302C06C0085E08A95F1F7000067E08BE290E02E
S11302D00E945F00C695D150F1F6C8E010FD06C03B
S11302E060E085E290E00E945F0005C060E085E286
S11302F090E00E946C0085E08A95F1F7000067E0C9
S11303008BE290E00E946C0085E08A95F1F7000092
S113031067E08BE290E00E945F001695C150F1F611
S113032064E08BE290E00E946C0085E08A95F1F72E
S11103300000DF91CF911F910895F894FFCF44
S111033E10204080039F250D9949411F01099D
S9030000FC
