S00F000070726F6A6563742E737265631E
S11300000C9434000C9451000C9451000C94510045
S11300100C9451000C9482000C9451000C945100E7
S11300200C9451000C94CA010C9451000C9451008E
S11300300C9451000C9451000C9451000C945100F8
S11300400C94B3000C9451000C9451000C94510086
S11300500C9451000C9451000C9451000C945100D8
S11300600C9451000C94510011241FBECFEFD8E022
S1130070DEBFCDBF11E0A0E0B1E0E2E3F9E002C0F1
S113008005900D92A431B107D9F721E0A4E1B1E0C4
S113009001C01D92AF31B207E1F70E949F010C9499
S11300A097040C94000062E084E290E00E94D70080
S11300B0089562E085E290E00E94F00085E38A956D
S11300C0F1F7000062E085E290E00E94E30085B56C
S11300D0897F85BD85B5816085BDE9E6F0E08081D5
S11300E081608083E8E6F0E0808184608083EDE6CF
S11300F0F0E08081816080837894809114019091F4
S1130100150108951F920F920FB60F9211248F9329
S11301109F93EF93FF93489B06C0EEE6F0E0808147
S11301208160808317C0EEE6F0E080818E7F80835B
S1130130809116019091170182959295907F98274E
S1130140807F9827909315018093140110921701D2
S113015010921601FF91EF919F918F910F900FBE16
S11301600F901F9018951F920F920FB60F921124A3
S11301702F938F939F93809116019091170101966D
S11301808C3126E0920728F490931701809316018E
S113019006C08BE196E090931701809316019F911E
S11301A08F912F910F900FBE0F901F901895FC0107
S11301B0408121E030E002C0220F331F6A95E2F74C
S11301C0242B20830895FC01908121E030E002C0BB
S11301D0220F331F6A95E2F720952923208308957F
S11301E0FC01408121E030E002C0220F331F6A95F8
S11301F0E2F7242B20830895299A85E08A95F1F764
S1130200000029980895CF93C82F662311F0289AE7
S113021001C02898549A559A569A579A5F985E98AE
S11302205D985C98CC230CF45F9AC6FD5E9AC5FD7C
S11302305D9AC4FD5C9A0E94FC005F985E985D988C
S11302405C98C3FD5F9AC2FD5E9AC1FD5D9AC0FDD4
S11302505C9A0E94FC005C9A5D9A5E9A5F9A87EBB6
S11302609BE00197F1F700C00000CF91089560E092
S11302700E9403010895611104C080580E9437014F
S1130280089580540E943701089581E00E94370147
S1130290089561E00E9403010895CF93DF93EC0178
S11302A02196FC018081882329F00E9449018991CB
S11302B08111FBCFDF91CF910895CF93C82F209A5E
S11302C0559A219A549A559A569A579A8FEF99EFBC
S11302D00197F1F700C000005D9A5C9A0E94FC004F
S11302E08FE19EE40197F1F700C000000E94FC003A
S11302F08FEF90E00197F1F700C000000E94FC002E
S11303008FEF90E00197F1F700C000005C980E9425
S1130310FC008FEF90E00197F1F700C0000088E245
S11303200E94370188E00E9437010E94450186E05F
S11303300E9437018C2F0E943701CF9108950E94AB
S113034053008CE00E945D0160E080E00E943B016C
S113035082E091E00E944D0160E08AE00E943B014E
S11303608CE091E00E944D0160E08CE00E943B0132
S11303708DE60E944901E1EBF0E080818B7F808370
S1130380808183608083E0E7F0E080818160808306
S11303907894FFCF1F920F920FB60F921124CF9231
S11303A0DF92EF92FF920F931F932F933F934F93FC
S11303B05F936F937F938F939F93AF93BF93EF93C9
S11303C0FF93CF93DF93CDB7DEB72A97DEBFCDBFC0
S11303D01A821982FE01339688E0DF011D928A9504
S11303E0E9F7809118018F5F809318018D3308F429
S11303F05AC00E9459008C0190931E0180931D01E4
S1130400609100017091010180E090E00E941A0364
S11304106B017C01B80180E090E00E941A0320E0A7
S113042030E44CE156E40E9472029B01AC01C70126
S1130430B6010E94A80320E030E040E05FE30E94A0
S1130440A8030E9415046093190170931A01809304
S11304501B0190931C011092180160E08AE00E9435
S11304603B018FE091E00E944D0160911901709170
S11304701A0180911B0190911C010E94E402DC018D
S1130480CB014AE0BE016F5F7F4F0E94620460E0CF
S11304908AE00E943B01CE0101960E944D0160E07A
S11304A08CE00E943B012A960FB6F894DEBF0FBE83
S11304B0CDBFDF91CF91FF91EF91BF91AF919F910C
S11304C08F917F916F915F914F913F912F911F91E8
S11304D00F91FF90EF90DF90CF900F900FBE0F9091
S11304E01F9018950E9486020C946E030E94670365
S11304F058F00E94600340F029F45F3F29F00C9407
S1130500570351110C94A2030C945D030E947F03C2
S113051068F39923B1F3552391F3951B550BBB272E
S1130520AA2762177307840738F09F5F5F4F220F73
S1130530331F441FAA1FA9F335D00E2E3AF0E0E86A
S113054032D091505040E695001CCAF72BD0FE2FB4
S113055029D0660F771F881FBB1F26173707480748
S1130560AB07B0E809F0BB0B802DBF01FF27935800
S11305705F4F3AF09E3F510578F00C9457030C946A
S1130580A2035F3FE4F3983ED4F38695779567958D
S1130590B795F7959F5FC9F7880F911D9695879535
S11305A097F90895E1E0660F771F881FBB1F621754
S11305B073078407BA0720F0621B730B840BBA0B12
S11305C0EE1F88F7E09508950E94EB026894B1113C
S11305D00C94A20308950E94870388F09F5798F013
S11305E0B92F9927B751B0F0E1F0660F771F881F34
S11305F0991F1AF0BA95C9F714C0B13091F00E944E
S1130600A103B1E008950C94A103672F782F8827E4
S1130610B85F39F0B93FCCF3869577956795B39574
S1130620D9F73EF490958095709561957F4F8F4FE3
S11306309F4F0895E89409C097FB3EF490958095E8
S1130640709561957F4F8F4F9F4F9923A9F0F92F94
S113065096E9BB279395F695879577956795B79512
S1130660F111F8CFFAF4BB0F11F460FF1BC06F5FF8
S11306707F4F8F4F9F4F16C0882311F096E911C00A
S1130680772321F09EE8872F762F05C0662371F02B
S113069096E8862F70E060E02AF09A95660F771F3F
S11306A0881FDAF7880F9695879597F9089597F933
S11306B09F6780E870E060E008959FEF80EC089504
S11306C000240A941616170618060906089500242D
S11306D00A9412161306140605060895092E0394A7
S11306E0000C11F4882352F0BB0F40F4BF2B11F41B
S11306F060FF04C06F5F7F4F8F4F9F4F089557FD7A
S11307009058440F551F59F05F3F71F04795880F7B
S113071097FB991F61F09F3F79F087950895121612
S113072013061406551FF2CF4695F1DF08C01616BE
S113073017061806991FF1CF86957105610508946F
S11307400895E894BB2766277727CB0197F9089586
S11307500E94BB030C946E030E94600338F00E9455
S1130760670320F0952311F00C9457030C945D0358
S113077011240C94A2030E947F0370F3959FC1F38C
S1130780950F50E0551F629FF001729FBB27F00D3B
S1130790B11D639FAA27F00DB11DAA1F649F662790
S11307A0B00DA11D661F829F2227B00DA11D621FDF
S11307B0739FB00DA11D621F839FA00D611D221F99
S11307C0749F3327A00D611D231F849F600D211D7D
S11307D0822F762F6A2F11249F5750409AF0F1F000
S11307E088234AF0EE0FFF1FBB1F661F771F881F69
S11307F091505040A9F79E3F510580F00C94570347
S11308000C94A2035F3FE4F3983ED4F38695779566
S11308106795B795F795E7959F5FC1F7FE2B880F0E
S1130820911D9695879597F908950E948703E8F09E
S11308309E37E8F09639B8F49E3848F4672F782F3D
S11308408827985FF9CF869577956795939595391D
S1130850D0F3B62FB1706B0F711D811D20F48795F5
S11308607795679593950C9439040C9454040C94DF
S1130870A203882371F4772321F09850872B762FD5
S113088007C0662311F499270DC09051862B70E0A0
S113089060E02AF09A95660F771F881FDAF7880FB1
S11308A09695879597F908959F3F31F0915020F4DC
S11308B0879577956795B795880F911D9695879538
S11308C097F90895BB274A3031F4992322F4BDE205
S11308D0909581959F4F0C946E04BB27FB0155277F
S11308E0AA27880F991FAA1FA41710F0A41B839589
S11308F05051B9F7A05DAA3308F0A95DA193009700
S113090079F7B111B1931192CB010C948704DC01F6
S1130910FC01672F71917723E1F7329704C07C9132
S11309206D9370836291AE17BF07C8F30895F8946E
S1050930FFCFF3
S1130932540144697374616E63653A003E34002065
S1070942202000006D
S9030000FC
