S00F000070726F6A6563742E737265631E
S11300000C9434000C9451000C9451000C94510045
S11300100C9451000C945B010C9451000C9451000D
S11300200C9451000C9451000C9451000C94510008
S11300300C9451000C94D1020C9451000C94510076
S11300400C9492010C9451000C9451000C945100A6
S11300500C9451000C9451000C9451000C945100D8
S11300600C9451000C94510011241FBECFEFD8E022
S1130070DEBFCDBF11E0A0E0B1E0EEEAFDE002C0DA
S113008005900D92AC32B107D9F721E0ACE2B1E0B2
S113009001C01D92AE33B207E1F70E947E020C94B8
S11300A0D5060C94000060E087E290E00E94B6015F
S11300B062E087E290E00E94B60165E084E290E0AD
S11300C00E94B60108958F929F92AF92BF92EF92D1
S11300D0FF921F93CF93DF937C01E42FF0E0E05075
S11300E0FF4FD08180E090E00E942F054B015C011E
S11300F0B70180E090E00E942F059B01AC01C5018F
S1130100B4010E94870420E030E048EC52E40E94ED
S1130110E6050E9453060E940005653618F010910A
S1130120020135C087EA860F8C3018F41091030160
S11301302EC083EB860F8C3018F41091040127C075
S11301408FEB860F8C3018F41091050120C08BECD6
S1130150860F8C3018F41091060119C087ED860FB4
S11301608C3018F41091070112C083EE860F8C3086
S113017018F4109108010BC08FEE860F8C3018F420
S11301801091090104C0613110F410910A0160E07A
S113019088E290E00E94C20162E088E290E00E945E
S11301A0C20165E085E290E00E94C20185E08A9583
S11301B0F1F70000C8E010FD06C065E085E290E0BC
S11301C00E94C20105C065E085E290E00E94CF0173
S11301D085E08A95F1F7000062E088E290E00E94F1
S11301E0CF0185E08A95F1F7000062E088E290E0B3
S11301F00E94C2011695C150F1F6C8E0D0FD06C0B8
S113020065E085E290E00E94C20105C065E085E2F8
S113021090E00E94CF0185E08A95F1F7000062E04A
S113022088E290E00E94CF0185E08A95F1F7000012
S113023062E088E290E00E94C201D695C150F1F6D6
S113024060E088E290E00E94CF0185E08A95F1F7B2
S11302500000DF91CF911F91FF90EF90BF90AF907E
S11302609F908F900895E9E6F0E08081816080831B
S1130270E8E6F0E080818460808308951F93CF9343
S1130280DF93EC01162F0E94CF0185E38A95F1F7E5
S11302900000612FCE010E94C201EDE6F0E08081F2
S11302A081608083789480912C0190912D01DF915D
S11302B0CF911F9108951F920F920FB60F921124A0
S11302C08F939F93EF93FF93489B10C010922F013D
S11302D010922E0185B5897F85BD85B5816085BD68
S11302E0EEE6F0E080818160808313C0EEE6F0E00A
S11302F080818E7F808380912E0190912F01829541
S11303009295907F9827807F982790932D018093D2
S11303102C01FF91EF919F918F910F900FBE0F9041
S11303201F9018951F920F920FB60F9211242F93BE
S11303308F939F9380912E0190912F0101968C3180
S113034026E0920728F490932F0180932E0106C093
S11303508BE196E090932F0180932E019F918F91D2
S11303602F910F900FBE0F901F901895FC014081A4
S113037021E030E002C0220F331F6A95E2F7242BFC
S113038020830895FC01908121E030E002C0220F17
S1130390331F6A95E2F72095292320830895FC01F1
S11303A0408121E030E002C0220F331F6A95E2F75A
S11303B0242B20830895299A85E08A95F1F700007B
S11303C029980895CF93C82F662311F0289A01C065
S11303D02898549A559A569A579A5F985E985D98B9
S11303E05C98CC230CF45F9AC6FD5E9AC5FD5D9AB9
S11303F0C4FD5C9A0E94DB015F985E985D985C98EE
S1130400C3FD5F9AC2FD5E9AC1FD5D9AC0FD5C9A10
S11304100E94DB015C9A5D9A5E9A5F9A87EB9BE08F
S11304200197F1F700C00000CF91089560E00E94A9
S1130430E2010895611104C080580E9416020895D3
S113044080540E941602089581E00E9416020895C5
S113045061E00E94E2010895CF93DF93EC012196BD
S1130460FC018081882329F00E942802899181114E
S1130470FBCFDF91CF910895CF93C82F209A559A3F
S1130480219A549A559A569A579A8FEF99EF019751
S1130490F1F700C000005D9A5C9A0E94DB018FE1D5
S11304A09EE40197F1F700C000000E94DB018FEF8A
S11304B090E00197F1F700C000000E94DB018FEF8C
S11304C090E00197F1F700C000005C980E94DB0106
S11304D08FEF90E00197F1F700C0000088E20E94DE
S11304E0160288E00E9416020E94240286E00E94FE
S11304F016028C2F0E941602CF9108950E94330198
S113050063E084E290E00E94B60162E084E290E05D
S11305100E94B60167E084E290E00E94B6010E9466
S113052053008CE00E943C0260E080E00E941A02CA
S11305308DE091E00E942C0260E08AE00E941A02A1
S113054084E191E00E942C0260E08CE00E941A0297
S11305508DE60E94280261E080E00E941A0287E191
S113056091E00E942C0261E08AE00E941A0284E178
S113057091E00E942C0261E08CE00E941A028DE658
S11305800E942802E1E8F0E08081897F80838081F5
S113059081608083EFE6F0E08081816080837894DD
S11305A0FFCF1F920F920FB60F9211248F929F923A
S11305B0AF92BF92CF92DF92EF92FF922F933F932D
S11305C04F935F936F937F938F939F93AF93BF9357
S11305D0EF93FF93CF93DF931F92CDB7DEB71982CA
S11305E0809131018F5F809331018B3008F46EC1AB
S11305F080913001811145C067E085E290E00E945E
S1130600CF0163E085E290E00E943E017C0190937B
S11306103D0180933C0160910B0170910C0180E0DD
S113062090E00E942F054B015C01B70180E090E04F
S11306300E942F0520E030E44CE156E40E94870438
S11306409B01AC01C501B4010E94E60520E030E045
S113065040E05FE30E94E6050E9453066093360182
S11306607093370180933801909339010E940005FB
S113067040E088EC90E00E94630081E080933001C8
S113068043C067E085E290E00E94C20162E085E237
S113069090E00E943E017C0190933B0180933A01DB
S11306A060910B0170910C0180E090E00E942F0595
S11306B04B015C01B70180E090E00E942F0520E02F
S11306C030E44CE156E40E9487049B01AC01C5016F
S11306D0B4010E94E60520E030E040E05FE30E94C0
S11306E0E6050E94530660933201709333018093B0
S11306F03401909335010E94000541E088EC90E0BC
S11307000E9463001092300110923101C0903201B6
S1130710D0903301E0903401F090350120E030E0D6
S113072048EC53E4C701B6010E94E10518168CF4A5
S113073060E08AE00E941A028DE191E00E942C029E
S113074060E08AE00E941A0284E291E00E942C0296
S11307504DC020E030E040E050E4C701B6010E9403
S113076082041816CCF060E08AE00E941A0280E24B
S113077091E00E942C024AE0BE016F5F7F4F80E04F
S113078090E00E94A00660E08AE00E941A02CE0176
S113079001960E942C022AC060E08AE00E941A029C
S11307A080E291E00E942C02609132017091330149
S11307B080913401909135010E94F904DC01CB0150
S11307C04AE0BE016F5F7F4F0E94A00660E08AE0AE
S11307D00E941A02CE0101960E942C0260E08DE074
S11307E00E941A0288E291E00E942C02C090360115
S11307F0D0903701E0903801F090390120E030E0EA
S113080048EC53E4C701B6010E94E10518168CF4C4
S113081061E08AE00E941A028DE191E00E942C02BC
S113082061E08AE00E941A0284E291E00E942C02B4
S11308304DC020E030E040E050E4C701B6010E9422
S113084082041816CCF061E08AE00E941A0280E269
S113085091E00E942C024AE0BE016F5F7F4F80E06E
S113086090E00E94A00661E08AE00E941A02CE0194
S113087001960E942C022AC061E08AE00E941A02BA
S113088080E291E00E942C02609136017091370160
S113089080913801909139010E94F904DC01CB0167
S11308A04AE0BE016F5F7F4F0E94A00661E08AE0CC
S11308B00E941A02CE0101960E942C0261E08DE092
S11308C00E941A0288E291E00E942C020F90DF91AC
S11308D0CF91FF91EF91BF91AF919F918F917F91B4
S11308E06F915F914F913F912F91FF90EF90DF9027
S11308F0CF90BF90AF909F908F900F900FBE0F90AE
S11309001F9018950E946C0508F481E008950E94D8
S11309109B040C94A7050E94A00558F00E94990519
S113092040F029F45F3F29F00C94900551110C9488
S1130930DB050C9496050E94B80568F39923B1F37E
S1130940552391F3951B550BBB27AA2762177307F1
S1130950840738F09F5F5F4F220F331F441FAA1F85
S1130960A9F335D00E2E3AF0E0E832D09150504041
S1130970E695001CCAF72BD0FE2F29D0660F771FEF
S1130980881FBB1F261737074807AB07B0E809F0D5
S1130990BB0B802DBF01FF2793585F4F3AF09E3F5A
S11309A0510578F00C9490050C94DB055F3FE4F35B
S11309B0983ED4F3869577956795B795F7959F5F9D
S11309C0C9F7880F911D9695879597F90895E1E0E9
S11309D0660F771F881FBB1F621773078407BA0748
S11309E020F0621B730B840BBA0BEE1F88F7E095A3
S11309F008950E9400056894B1110C94DB050895D4
S1130A000E94C00588F09F5798F0B92F9927B751D5
S1130A10B0F0E1F0660F771F881F991F1AF0BA959E
S1130A20C9F714C0B13091F00E94DA05B1E008951D
S1130A300C94DA05672F782F8827B85F39F0B93F0F
S1130A40CCF3869577956795B395D9F73EF4909551
S1130A508095709561957F4F8F4F9F4F0895E894CF
S1130A6009C097FB3EF490958095709561957F4FF2
S1130A708F4F9F4F9923A9F0F92F96E9BB279395A0
S1130A80F695879577956795B795F111F8CFFAF4B0
S1130A90BB0F11F460FF1BC06F5F7F4F8F4F9F4FE1
S1130AA016C0882311F096E911C0772321F09EE83F
S1130AB0872F762F05C0662371F096E8862F70E0A5
S1130AC060E02AF09A95660F771F881FDAF7880F7F
S1130AD09695879597F90895990F0008550FAA0BD5
S1130AE0E0E8FEEF16161706E807F907C0F012163D
S1130AF01306E407F50798F0621B730B840B950B40
S1130B0039F40A2661F0232B242B252B21F4089594
S1130B100A2609F4A140A6958FEF811D811D089531
S1130B2097F99F6780E870E060E008959FEF80EC9C
S1130B30089500240A94161617061806090608953F
S1130B4000240A9412161306140605060895092EA5
S1130B500394000C11F4882352F0BB0F40F4BF2B14
S1130B6011F460FF04C06F5F7F4F8F4F9F4F089554
S1130B7057FD9058440F551F59F05F3F71F047954A
S1130B80880F97FB991F61F09F3F79F0879508952F
S1130B90121613061406551FF2CF4695F1DF08C04E
S1130BA0161617061806991FF1CF8695710561056B
S1130BB008940895E894BB2766277727CB0197F913
S1130BC008950E946C0508F48FEF08950E94F905BA
S1130BD00C94A7050E94990538F00E94A00520F006
S1130BE0952311F00C9490050C94960511240C9403
S1130BF0DB050E94B80570F3959FC1F3950F50E093
S1130C00551F629FF001729FBB27F00DB11D639FBA
S1130C10AA27F00DB11DAA1F649F6627B00DA11D60
S1130C20661F829F2227B00DA11D621F739FB00D06
S1130C30A11D621F839FA00D611D221F749F332776
S1130C40A00D611D231F849F600D211D822F762F0F
S1130C506A2F11249F5750409AF0F1F088234AF0EC
S1130C60EE0FFF1FBB1F661F771F881F9150504058
S1130C70A9F79E3F510580F00C9490050C94DB0578
S1130C805F3FE4F3983ED4F3869577956795B795DF
S1130C90F795E7959F5FC1F7FE2B880F911D9695F9
S1130CA0879597F908950E94C005E8F09E37E8F00B
S1130CB09639B8F49E3848F4672F782F8827985FC0
S1130CC0F9CF86957795679593959539D0F3B62F97
S1130CD0B1706B0F711D811D20F487957795679511
S1130CE093950C9477060C9492060C94DB05882358
S1130CF071F4772321F09850872B762F07C0662351
S1130D0011F499270DC09051862B70E060E02AF011
S1130D109A95660F771F881FDAF7880F969587953F
S1130D2097F908959F3F31F0915020F48795779576
S1130D306795B795880F911D9695879597F90895AE
S1130D40BB274A3031F4992322F4BDE29095819572
S1130D509F4F0C94AC06BB27FB015527AA27880F8D
S1130D60991FAA1FA41710F0A41B83955051B9F71B
S1130D70A05DAA3308F0A95DA193009779F7B1119A
S1130D80B1931192CB010C94C506DC01FC01672FD1
S1130D9071917723E1F7329704C07C916D9370834E
S1110DA06291AE17BF07C8F30895F894FFCF11
S1130DAE8040FF7F3F1F0F07030100540146726FFF
S1130DBE6E743A003E34004261636B3A0020202088
S10F0DCE202020003E346D00636D000006
S9030000FC
